:100F4A00751E03E4F51DFB7A00791D7F0302057007
:100E5200751D40751E017522007521C27520017530
:100E62001F00752401E4F525FB7A00791D7F01122C
:0C0E720000967D017F01120DDD53A23FB0
:010E7E002251
:100C2600120F4A120E52D2AF7F14120F5AE50CD38E
:100C3600940040F4D50CF1E50BD39400401EE4F586
:100C46001CE51CC3950B50147400251CF582E43476
:100C560000F583E0FF120F76051C80E5E4F50B80B6
:010C6600C7C6
:10057000EFD3940740037FFF221207C4FED39403F6
:1005800040037FFF22EF7041EE700B9000011207D5
:10059000DDF4529352941207C4B4010B900001127F
:1005A00007DD4293F452941207C4FEB4020A90008D
:1005B000011207DD42934294EEB4030D9000011244
:1005C00007DDFEF45293EE4294EF6401704312078C
:1005D000C4FE700B9000011207DDF452915292EEAE
:1005E000B4010B9000011207DD4291F45292120700
:1005F000C4B4020A9000011207DD42914292120730
:10060000C4B4030D9000011207DDFEF45291EE42D6
:1006100092EF640270431207C4FE700B9000011247
:1006200007DDF452955296EEB4010B9000011207CB
:10063000DD4295F452961207C4B4020A90000112EA
:1006400007DD429542961207C4B4030D90000112D3
:1006500007DDFEF45295EE4296EF640370431207F5
:10066000C4FE700B9000011207DDF452B152B2EEDD
:10067000B4010B9000011207DD42B1F452B212072F
:10068000C4B4020A9000011207DD42B142B212075F
:10069000C4B4030D9000011207DDFEF452B1EE4226
:1006A000B2EF640470431207C4FE700B9000011295
:1006B00007DDF452B352B4EEB4010B9000011207FF
:1006C000DD42B3F452B41207C4B4020A900001121E
:1006D00007DD42B342B41207C4B4030D9000011207
:1006E00007DDFEF452B3EE42B4EF64057043120727
:1006F000C4FE700B9000011207DDF452C952CAEE1D
:10070000B4010B9000011207DD42C9F452CA12076E
:10071000C4B4020A9000011207DD42C942CA12079E
:10072000C4B4030D9000011207DDFEF452C9EE427D
:10073000CAEF640670431207C4FE700B90000112EA
:1007400007DDF452CB52CCEEB4010B90000112073E
:10075000DD42CBF452CC1207C4B4020A900001125D
:1007600007DD42CB42CC1207C4B4030D9000011246
:1007700007DDFEF452CBEE42CCEF64077043120764
:10078000C4FF700B9000011207DDF452E152E2EF5A
:10079000B4010B9000011207DD42E1F452E21207AE
:1007A000C4B4020A9000011207DD42E142E21207DE
:1007B000C4B4030D9000011207DDFFF452E1EF42D3
:0407C000E27F0022B2
:0F0F5A007D607C09ED1D70011C144C70F7DFF1F8
:010F69002265
:100CA700EFD3940140037FFF22EDD3940340037FEA
:100CB700FF22EF7004C2A98002D2A9ED700553B7D5
:100CC700FDC2B9BD010553B7FDD2B9BD020543B792
:0E0CD70002C2B9BD030543B702D2B97F0022A5
:100CE500EFD3940140037FFF22EDD3940340037FAC
:100CF500FF22EF7004C2AB8002D2ABED700553B793
:100D0500F7C2BBBD010553B7F7D2BBBD020543B75B
:0E0D150008C2BBBD030543B708D2BB7F002256
:100EA200EFD3940140037FFF22EDD3940340037FED
:100EB200FF22EF25E025E0FFE5AF54FB4FF5AFE45D
:020EC200FF220D
:100EC400EFD3940140037FFF22EDD3940340037FCB
:100ED400FF22EFC43354E0FFE5AF54DF4FF5AFE436
:020EE400FF22EB
:100E7F00EFD3940140037FFF22EDD3940340037F10
:100E8F00FF22EFC4333354C0FFE5AF54BF4FF5AF6C
:030E9F00E4FF224B
:100D2300EFD3940140037FFF22EDD3940340037F6D
:100D3300FF22EF7004C2A88002D2A8ED700553B75A
:100D4300FEC2B8BD010553B7FED2B8BD020543B715
:0E0D530001C2B8BD030543B701D2B87F00222C
:100D6100EFD3940140037FFF22EDD3940340037F2F
:100D7100FF22EF7004C2AA8002D2AAED700553B718
:100D8100FBC2BABD010553B7FBD2BABD020543B7D9
:0E0D910004C2BABD030543B704D2BA7F0022E4
:100EE600EFD3940140037FFF22EFC454F0FFE58F58
:080EF60054EF4FF58FE4FF22D9
:10002600EFD3940140037FFF22EFC43354E0FFE592
:090036008F54DF4FF58FE4FF2227
:10000300EFD3940140037FFF22EFC4333354C0FF87
:0A001300E58F54BF4FF58FE4FF2284
:100D9F00EFD3940140037FFF22EDD3940340037FF1
:100DAF00FF22EF7004C2AD8002D2ADED700553B7D4
:100DBF00DFC2BDBD010553B7DFD2BDBD020543B7CD
:0E0DCF0020C2BDBD030543B720D2BD7F002268
:100B1000EDD3940340037FFF22EF30E10543E6204D
:100B2000800353E6DFEF30E00543E610800353E631
:100B3000EFED700653B6DF53B5DFBD010653B6DFE8
:100B400043B520BD020643B62053B5DFBD030643BF
:080B5000B62043B5207F00220E
:1009DC00EFD3940140037FFF22EBD3940340037FBA
:1009EC00FF22BF0112ED90FE817006E0547FF08073
:1009FC0011E04480F0800BEF700890FE83E0548788
:100A0C004DF0EB700653B6DF53B5DFBB010653B6A2
:100A1C00DF43B520BB020643B62053B5DFBB03064C
:090A2C0043B62043B5207F0022EF
:100DDD00EFD3940140037FFF22EDD3940340037FB3
:100DED00FF22EF7004C2AC8002D2ACED700553B798
:100DFD00EFC2BCBD010553B7EFD2BCBD020543B771
:0E0E0D0010C2BCBD030543B710D2BC7F00224B
:100C6700EFD3940140037FFF22EDD3940340037F2A
:100C7700FF22E5AF54FE4FF5AFED700653B6FE53B6
:100C8700B5FEBD010653B6FE43B501BD020643B628
:100C97000153B5FEBD030643B60143B5017F0022EC
:100B5800EFD3940140037FFF22EDD3940340037F3A
:100B6800FF22EF33333354F8FFE5AF54F74FF5AFB7
:100B7800ED700653EEFE53DFFEBD010653EEFE4355
:100B8800DF01BD020643EE0153DFFEBD030643EE5F
:070B98000143DF017F002291
:10004600EFD3940140037FFF22EDD3940340037F57
:10005600FF22EFC454F0FFE5AF54EF4FF5AFED705C
:100066000653EEFD53DFFDBD010653EEFD43DF02F1
:10007600BD020643EE0253DFFDBD030643EE024317
:05008600DF027F0022F3
:100B9F00EFD3940140037FFF22EDD3940340037FF3
:100BAF00FF22EF25E0FFE5AF54FD4FF5AFED7006E7
:100BBF0053B6FD53B5FDBD010653B6FD43B502BD9A
:100BCF00020643B60253B5FDBD030643B60243B555
:040BDF00027F00226F
:10096200EFD3948140037FFF22EBD3940340037FB4
:10097200FF22EF247F603004705890FEC4EDF0EB4C
:10098200700653B6FB53B5FBBB010653B6FB43B52A
:1009920004BB020643B60453B5FBEB640370384351
:1009A200B60443B504803090FEE4EDF0EB700653DC
:1009B200B6F753B5F7BB010653B6F743B508BB020A
:1009C2000643B60853B5F7BB030D43B60843B50853
:0A09D200800590FEE4EDF07F0022A6
:100E1B00EDD394035026ED700653EEFB53DFFBBD71
:100E2B00010653EEFB43DF04BD020643EE0453DF22
:100E3B00FBBD030B43EE0443DF0480037FFF2290D3
:070E4B00FE62EFF07F0022C0
:03002300020BE3EA
:100BE300C0E0C083C082C0D075D000C00730982059
:100BF300C298E50BC394804003750B00AF0B050B44
:100C030074002FF582E43400F583E599F0750C0543
:100C1300309905C299750A00D007D0D0D082D0830D
:030C2300D0E032EC
:03004300020A3579
:100A3500C0E0C083C082C0D075D000C007E59A3041
:100A4500E021539AFEE510C394804003751000AF72
:100A550010051074802FF582E43400F583E59BF0D2
:100A6500751105E59A30E106539AFD750F00D0071B
:090A7500D0D0D082D083D0E03251
:03008B00020A7EE8
:100A7E00C0E0C083C082C0D075D000C007E5AC30E6
:100A8E00E02153ACFEE515C394404003751500AF4D
:100A9E0015051574002FF582E43401F583E5ADF0EC
:100AAE00751605E5AC30E10653ACFD751400D007A4
:090ABE00D0D0D082D083D0E03208
:03009300020AC797
:100AC700C0E0C083C082C0D075D000C007E58430C5
:100AD700E0215384FEE51AC394204003751A00AF42
:100AE7001A051A74C02FF582E43401F583E585F001
:100AF700751B05E58430E1065384FD751900D007A1
:090B0700D0D0D082D083D0E032BE
:080096008F268B278A28892997
:10009E00E5266401600302020CF508F509F50AF580
:1000AE000BF50CF52AF52B7440252BF582740135D2
:1000BE002AF583E4F0052BE52B7002052A648045B2
:1000CE002A70E4E4F52AF52B7400252BF5827400D2
:1000DE00352AF583E4F0052BE52B7002052A6480A2
:1000EE00452A70E4AB27AA28A9291207C4FFE59870
:1000FE00543F4FF598EF64C06008EF644060030210
:10010E0001C19000021208FC7F807E8D7D5B7C0019
:10011E001208468F2F8E2E8D2D8C2CE4FFFE7D0126
:10012E00FCAB2FAA2EA92DA82CC31208D840037FF2
:10013E00FF22C3E4952FF52FE4952EF52E7401952D
:10014E002DF52DE4952CF52CAB27AA28A929900086
:10015E00011207DDFB6401702CC28E538EFE538993
:10016E00BF5389CF438E40AF2FAE2EAD2DAC2C7822
:10017E00081208E98F8D852F8BC2AB5389BF538F21
:10018E00FDD28E8062EB64027026538EEF438E0199
:10019E00538EF7438E04AF2FAE2EAD2DAC2C7808B8
:1001AE001208E98FD6852FD753AFFB438E108037B9
:1001BE007FFF22AB27AA28A9291207C4FF7013902C
:1001CE0000081207DDB40105438E20801A538EDF1E
:1001DE008015EFB480119000081207DDB4010543BD
:1001EE008780800353877FAB27AA28A92990000711
:1001FE001207DD7004C29C8002D29C7F0022E5268D
:10020E0064026003020305F50DF50EF50FF510F50A
:10021E0011F52AF52B74E0252BF5827401352AF59C
:10022E0083E4F0052BE52B7002052A6480452A70C5
:10023E00E4E4F52AF52B7480252BF5827400352A1B
:10024E00F583E4F0052BE52B7002052A6480452A20
:10025E0070E4AB27AA28A9291207C4FF64C0600561
:10026E00EF64407075EFB4C005439A808003539AD3
:10027E007F9000021208FC7F807E8D7D5B7C0012D9
:10028E0008468F2F8E2E8D2D8C2CE4FFFE7D01FCCB
:10029E00AB2FAA2EA92DA82CC31208D840037FFF7E
:1002AE0022C3E4952FF52FE4952EF52E7401952D8E
:1002BE00F52DE4952CF52C538EEF538EF7438E04CB
:1002CE00AF2FAE2EAD2DAC2C78081208E98FD68547
:1002DE002FD753AFFB438E1080037FFF22AB27AA8D
:1002EE0028A9299000071207DDC454F0FFE59A549F
:1002FE00EF4FF59A7F0022E526640360030204396E
:10030E00F512F513F514F515F516F52AF52B74609F
:10031E00252BF5827402352AF583E4F0052BE52BA7
:10032E007002052A6440452A70E4E4F52AF52B7420
:10033E0000252BF5827401352AF583E4F0052BE5B3
:10034E002B7002052A6440452A70E4AB27AA28A91F
:10035E00291207C4FF64C06008EF64406003020402
:10036E001CEFB4C00543AC80800353AC7F900002F9
:10037E001208FC7F807E8D7D5B7C001208468F2FDD
:10038E008E2E8D2D8C2CE4FFFE7D01FCAB2FAA2E24
:10039E00A92DA82CC31208D840037FFF22C3E495D1
:1003AE002FF52FE4952EF52E7401952DF52DE49550
:1003BE002CF52CAB27AA28A9299000011207DDFBEA
:1003CE00B4031D43AC40AF2FAE2EAD2DAC2C780830
:1003DE001208E98FD4852FD553D1F043D10A80313D
:1003EE00EB64027026538EEF53ACBF538EF7438EE1
:1003FE0004AF2FAE2EAD2DAC2C78081208E98FD697
:10040E00852FD753AFFB438E1080067FFF227FFFD1
:10041E0022AB27AA28A9299000071207DDC454F0A1
:10042E00FFE5AC54EF4FF5AC7F0022E52664046087
:10043E000302056DF517F518F519F51AF51BF52AD2
:10044E00F52B74A0252BF5827402352AF583E4F082
:10045E00052BE52B7002052A6420452A70E4E4F58D
:10046E002AF52B74C0252BF5827401352AF583E409
:10047E00F0052BE52B7002052A6420452A70E4ABAB
:10048E0027AA28A9291207C4FF64C06008EF644098
:10049E006003020550EFB4C005438480800353848B
:1004AE007F9000021208FC7F807E8D7D5B7C0012A7
:1004BE0008468F2F8E2E8D2D8C2CE4FFFE7D01FC99
:1004CE00AB2FAA2EA92DA82CC31208D840037FFF4C
:1004DE0022C3E4952FF52FE4952EF52E7401952D5C
:1004EE00F52DE4952CF52CAB27AA28A9299000010F
:1004FE001207DDFBB4041D438440AF2FAE2EAD2D8D
:10050E00AC2C78081208E98FD2852FD353D10F4324
:10051E00D1A08031EB64027026538EEF5384BF530B
:10052E008EF7438E04AF2FAE2EAD2DAC2C78081265
:10053E0008E98FD6852FD753AFFB438E1080067FE9
:10054E00FF227FFF22AB27AA28A9299000071207B6
:10055E00DDC454F0FFE58454EF4FF5847F00227F15
:01056E00FF8D
:01056F002269
:0A0F76008F99750A01E50A70FC224C
:100EFE001207C4FF600C120F76740129F9E43AFA56
:030F0E0080EE2250
:0A0F80008F9B750F01E50F70FC2236
:100F11001207C4FF600C120F80740129F9E43AFA38
:030F210080EE223D
:0A0F8A008FAD751401E51470FC2210
:100F24001207C4FF600C120F8A740129F9E43AFA1B
:030F340080EE222A
:0A0F94008F85751901E51970FC2224
:100F37001207C4FF600C120F94740129F9E43AFAFE
:030F470080EE2217
:05001D00AE07020F76A2
:03000000020F6A82
:0C0F6A00787FE4F6D8FD75812F020C267C
:1007C400BB010689828A83E0225002E722BBFE0233
:0907D400E32289828A83E4932266
:1007DD00BB010CE58229F582E5833AF583E02250D1
:1007ED0006E92582F8E622BBFE06E92582F8E2221B
:0D07FD00E58229F582E5833AF583E4932235
:10080A0075F008758200EF2FFFEE33FECD33CDCCA5
:10081A0033CCC58233C5829BED9AEC99E582984028
:10082A000CF582EE9BFEED9AFDEC99FC0FD5F0D605
:10083A00E4CEFBE4CDFAE4CCF9A88222B800C1B92F
:10084A000059BA002DEC8BF084CFCECDFCE5F0CB6D
:10085A00F97818EF2FFFEE33FEED33FDEC33FCEBA6
:10086A0033FB10D703994004EB99FB0FD8E5E4F961
:10087A00FA227818EF2FFFEE33FEED33FDEC33FC4E
:10088A00C933C910D7059BE99A4007EC9BFCE99A42
:10089A00F90FD8E0E4C9FAE4CCFB2275F010EF2F87
:1008AA00FFEE33FEED33FDCC33CCC833C810D70787
:1008BA009BEC9AE899400AED9BFDEC9AFCE899F8C2
:0E08CA000FD5F0DAE4CDFBE4CCFAE4C8F92255
:1008D800EB9FF5F0EA9E42F0E99D42F0E89C45F076
:0108E80022ED
:1008E900E8600FECC313FCED13FDEE13FEEF13FFED
:0308F900D8F12211
:1008FC00BB010DE58229F582E5833AF583020939BE
:10090C005007E92582F802092CBBFE07E92582F87D
:10091C00020945E58229F582E5833AF583020952FD
:0D092C00E6FB08E6F908E6FA08E6CBF8223B
:0C093900E0F8A3E0F9A3E0FAA3E0FB2241
:0D094500E2FB08E2F908E2FA08E2CBF82232
:10095200E493F8740193F9740293FA740393FB22FB
:00000001FF
