:0232690030B083
:02326B003251DE
:02326D00257CBE
:02326F002A072C
:023271002653E2
:02327300004613
:102C9C00C7B0BDF80A00BAF3CDCB0A00B3B5B5C6C0
:102CAC00C1C1C3F0C8B4CE0A00C6F4B6AFD1B2CF1E
:102CBC00DFC4A3CABD0A00B9D8B1D5D1B2CFDFC425
:102CCC00A3CABD0A005B64697374616E63655D259C
:042CDC002E3266002E
:0831BA0041038A004103890072
:10315B0053B1FC53B2FC5391FC5392FC5393F75372
:03316B0094F722B4
:1025F2009002D47440F0A37401F0A31209A7000161
:10260200C2009002DB7401F0E4A3F07B017A02794C
:10261200D47F01120AC17D017F01122EAC53A23F69
:102622009002D47440F0A37402F0A31209A7000030
:1026320025809002DB7401F0E4A3F07B017A027939
:10264200D47F02120AC17D017F01122D2453BAFEEA
:012652002265
:10308F0043BA801225F212315B1231DD12000312A6
:10309F00328312327512328912329512328FD2AFB9
:0130AF0022FE
:1030B00012308F7F011219A97F031219A97F041200
:0C30C00019A97F051219A9E4FF021A32B9
:10219E0090038AE014602914603914700302223708
:1021AE0014700302224D2404600302226A7BFF7A1C
:1021BE002C799C12316E7F3C7E001229B602226A67
:1021CE007BFF7A2C79A212316E7F3C7E001227683B
:1021DE0002226A7BFF7A2C79A812316E7F021231AD
:1021EE002F7D287F02121ABB7F021231457D287F78
:1021FE0002121ABB7F0212312F7D287F02121ABBE8
:10220E007F021231457D287F02121ABB7F021231E6
:10221E002F7D287F02121ABB7F021231457D287F47
:10222E0002121ABB12311780337BFF7A2C79B5124A
:10223E00316E7F021219A99003897401F0801D7B03
:10224E00FF7A2C79C312316E900389E0B4010D7FB1
:10225E0002121A32122FD9E4900389F090038AE009
:0B226E0004F0E0D394044002E4F022EE
:1031CC0090038AE0FF64016004EFB40203122FD96C
:0131DC0022D0
:10227900900323EFF07003022FD9900323E0B401F8
:10228900077F467E000229B6900323E0B402077F48
:10229900467E00022768900323E0B403077F467E49
:1022A90000022C10900323E0B404077F467E00024D
:1022B9002C57900323E0B405077F467E000227BF11
:1022C900900323E0B410051231178030900323E006
:1022D900B4111D7BFF7A2C79D190038BE0FCA3E02C
:1022E900FDA3E0FEA3E0FF90035C12099B02117FAE
:1022F900900323E0B412087F0212312F02311790A4
:102309000323E0B413057F02023145900323E0B4AF
:10231900200C7F021219A99003897401F0229003FD
:1023290023E0B42114900389E0B4010D7F02121A4D
:0A23390032122FD9E4900389F0223C
:0C3251001230027D147F02121ABB80F4C0
:10257C0090030474D8F0A374F0F012286B9003024B
:10258C00EEF0A3EFF0A3E0B5060EA3E0B507097DCE
:10259C00027F02121ABB80E2900302E0FEA3E0FF6E
:1025AC00A3EEF0A3EFF04E70087F46FE1229B68022
:1025BC002CC3900302E06480948050097F467E0017
:1025CC00122C108018D3900303E09400900302E0C7
:1025DC006480948040077F467E00122C577D047FD8
:0625EC0002121ABB8094EC
:102A0700900004E0D39400403DE014F0703890004B
:102A170003E0D39400402AE4900321F0900003E000
:102A2700FF900321E0FEC39F501774142EF582E434
:102A37003400F583E0FF1231FD900321E004F080BC
:0F2A4700DBE4900003F07D047F02121ABB80B124
:10265300900009E0D39400404FE014F0704A9000DA
:1026630008E0D39400403CE4900322F0900008E09B
:10267300FF900322E0FEC39F502974942EF582E459
:102683003400F583E0FF122279900322E02494F5CD
:1026930082E43400F583E0FF1231EE900322E0047C
:1026A300F080C9E4900008F07D047F02121ABB8019
:0126B3009F87
:100046007B017A03798B122343EF7030FFFE7DF03C
:100056007C4190038BE0F8A3E0F9A3E0FAA3E0FB70
:100066001203345017123117900389E0B4010D7F43
:1000760002121A32122FD9E4900389F07D147F02FE
:05008600121ABB80BB53
:101C8C00EFD3940740037FFF221206DDFED39403AB
:101C9C0040037FFF22EF7041EE700B9000011206A3
:101CAC00F6F4529352941206DDB4010B900001121B
:101CBC0006F64293F452941206DDFEB4020A90002A
:101CCC00011206F642934294EEB4030D90000112F9
:101CDC0006F6FEF45293EE4294EF64017043120642
:101CEC00DDFE700B9000011206F6F452915292EE4A
:101CFC00B4010B9000011206F64291F452921206B6
:101D0C00DDB4020A9000011206F6429142921206CC
:101D1C00DDB4030D9000011206F6FEF45291EE4272
:101D2C0092EF640270431206DDFE700B90000112FC
:101D3C0006F6F452955296EEB4010B900001120681
:101D4C00F64295F452961206DDB4020A9000011286
:101D5C0006F6429542961206DDB4030D9000011270
:101D6C0006F6FEF45295EE4296EF640370431206AB
:101D7C00DDFE700B9000011206F6F452B152B2EE79
:101D8C00B4010B9000011206F642B1F452B21206E5
:101D9C00DDB4020A9000011206F642B142B21206FC
:101DAC00DDB4030D9000011206F6FEF452B1EE42C2
:101DBC00B2EF640470431206DDFE700B900001124A
:101DCC0006F6F452B352B4EEB4010B9000011206B5
:101DDC00F642B3F452B41206DDB4020A90000112BA
:101DEC0006F642B342B41206DDB4030D90000112A4
:101DFC0006F6FEF452B3EE42B4EF640570431206DD
:101E0C00DDFE700B9000011206F6F452C952CAEEB8
:101E1C00B4010B9000011206F642C9F452CA120624
:101E2C00DDB4020A9000011206F642C942CA12063B
:101E3C00DDB4030D9000011206F6FEF452C9EE4219
:101E4C00CAEF640670431206DDFE700B900001129F
:101E5C0006F6F452CB52CCEEB4010B9000011206F4
:101E6C00F642CBF452CC1206DDB4020A90000112F9
:101E7C0006F642CB42CC1206DDB4030D90000112E3
:101E8C0006F6FEF452CBEE42CCEF6407704312061A
:101E9C00DDFF700B9000011206F6F452E152E2EFF6
:101EAC00B4010B9000011206F642E1F452E2120664
:101EBC00DDB4020A9000011206F642E142E212067B
:101ECC00DDB4030D9000011206F6FFF452E1EF426F
:041EDC00E27F00227F
:102D6700EFD3940140037FFF22EDD3940340037F09
:102D7700FF22EF7004C2A98002D2A9ED700553B7F4
:102D8700FDC2B9EDB4010553B7FDD2B9EDB40205E3
:102D970043B702C2B9EDB4030543B702D2B97F0006
:012DA7002209
:102DA800EFD3940140037FFF22EDD3940340037FC8
:102DB800FF22EF7004C2AB8002D2ABED700553B7AF
:102DC800F7C2BBEDB4010553B7F7D2BBEDB40205AA
:102DD80043B708C2BBEDB4030543B708D2BB7F00B5
:012DE80022C8
:10304B00EFD3940140037FFF22EDD3940340037F22
:10305B00FF22EF25E025E0FFE5AF54FB4FF5AFE492
:02306B00FF2242
:10306D00EFD3940140037FFF22EDD3940340037F00
:10307D00FF22EFC43354E0FFE5AF54DF4FF5AFE46B
:02308D00FF2220
:10302800EFD3940140037FFF22EDD3940340037F45
:10303800FF22EFC4333354C0FFE5AF54BF4FF5AFA1
:03304800E4FF2280
:102DE900EFD3940140037FFF22EDD3940340037F87
:102DF900FF22EF7004C2A88002D2A8ED700553B774
:102E0900FEC2B8EDB4010553B7FED2B8EDB4020560
:102E190043B701C2B8EDB4030543B701D2B87F0087
:012E29002286
:102E2A00EFD3940140037FFF22EDD3940340037F45
:102E3A00FF22EF7004C2AA8002D2AAED700553B72E
:102E4A00FBC2BAEDB4010553B7FBD2BAEDB4020521
:102E5A0043B704C2BAEDB4030543B704D2BA7F003C
:012E6A002245
:1030FF00EFD3940140037FFF22EFC454F0FFE58F1D
:08310F0054EF4FF58FE4FF229D
:1030E600EFD3940140037FFF22EFC43354E0FFE5A2
:0930F6008F54DF4FF58FE4FF2237
:1030CC00EFD3940140037FFF22EFC4333354C0FF8E
:0A30DC00E58F54BF4FF58FE4FF228B
:102E6B00EFD3940140037FFF22EDD3940340037F04
:102E7B00FF22EF7004C2AD8002D2ADED700553B7E7
:102E8B00DFC2BDEDB4010553B7DFD2BDEDB4020512
:102E9B0043B720C2BDEDB4030543B720D2BD7F00BD
:012EAB002204
:102AA200EDD3940340037FFF22EF30E10543E6209C
:102AB200800353E6DFEF30E00543E610800353E680
:102AC200EFED700653B6DF53B5DFEDB4010653B632
:102AD200DF43B520EDB4020643B62053B5DFEDB4B3
:0B2AE200030643B62043B5207F00220E
:1026B400EFD3940140037FFF22EBD3940340037FC5
:1026C400FF22EFB40112ED90FE817006E0547FF01A
:1026D4008011E04480F0800BEF700890FE83E0549A
:1026E400874DF0EB700653B6DF53B5DFEBB401064C
:1026F40053B6DF43B520EBB4020643B62053B5DF2F
:0D270400EBB4030643B62043B5207F00224E
:102EAC00EFD3940140037FFF22EDD3940340037FC3
:102EBC00FF22EF7004C2AC8002D2ACED700553B7A8
:102ECC00EFC2BCEDB4010553B7EFD2BCEDB40205B3
:102EDC0043B710C2BCEDB4030543B710D2BC7F009E
:012EEC0022C3
:102D2400EFD3940140037FFF22EDD3940340037F4C
:102D3400FF22E5AF54FE4FF5AFED700653B6FE53D8
:102D4400B5FEEDB4010653B6FE43B501EDB402067B
:102D540043B60153B5FEEDB4030643B60143B501D2
:032D64007F0022CB
:102AED00EFD3940140037FFF22EDD3940340037F86
:102AFD00FF22EF33333354F8FFE5AF54F74FF5AF03
:102B0D00ED700653EEFE53DFFEEDB4010653EEFEFF
:102B1D0043DF01EDB4020643EE0153DFFEEDB403D6
:0A2B2D000643EE0143DF017F0022A2
:102B8100EFD3940140037FFF22EDD3940340037FF1
:102B9100FF22EFC454F0FFE5AF54EF4FF5AFED70F6
:102BA1000653EEFD53DFFDEDB4010653EEFD43DFA9
:102BB10002EDB4020643EE0253DFFDEDB40306431A
:082BC100EE0243DF027F002257
:102BC900EFD3940140037FFF22EDD3940340037FA9
:102BD900FF22EF25E0FFE5AF54FD4FF5AFED70069D
:102BE90053B6FD53B5FDEDB4010653B6FD43B50229
:102BF900EDB4020643B60253B5FDEDB4030643B680
:072C09000243B5027F002227
:10248500EFD3948140037FFF22EBD3940340037F76
:10249500FF22EF247F603204705D90FEC4EDF0EB07
:1024A500700653B6FB53B5FBEBB4010653B6FB43BD
:1024B500B504EBB4020643B60453B5FBEB640370F5
:1024C5003B43B60443B504803390FEE4EDF0EB7076
:1024D5000653B6F753B5F7EBB4010653B6F743B554
:1024E50008EBB4020643B60853B5F7EBB4030D4346
:0F24F500B60843B508800590FEE4EDF07F0022A5
:102EED00EDD394035029ED700653EEFB53DFFBED4C
:102EFD00B4010653EEFB43DF04EDB4020643EE04CA
:102F0D0053DFFBEDB4030B43EE0443DF0480037F7B
:0A2F1D00FF2290FE62EFF07F002219
:100AC1009002DEEBF0A3EAF0A3E9F09002DDEFF093
:100AD10064016003020C9F900000F0A3F0A3F0A357
:100AE100F0A3F09002E1F0A3F09002E1E0FEA3E0B8
:100AF100FFC39480EE9400501C74542FF58274014E
:100B01003EF583E4F09002E2E004F070DC9002E153
:100B1100E004F080D4E49002E1F0A3F09002E1E07F
:100B2100FEA3E0FFC39480EE9400501C74142FF5D3
:100B31008274003EF583E4F09002E2E004F070DCA0
:100B41009002E1E004F080D49002DEE0FBA3E0FA41
:100B5100A3E0F91206DDFFE598543F4FF598EF64E5
:100B6100C06008EF64406003020C4A900002120961
:100B71006B7F807E8D7D5B7C0012088D9002E3127D
:100B8100099BE4FFFE7D01FC9002E3E0F8A3E0F99C
:100B9100A3E0FAA3E0FBC312092D40037FFF2290DB
:100BA10002E3E0F8A3E0F9A3E0FAA3E0FBC3E49BCE
:100BB100FFE49AFE740199FDE498FC9002E31209A6
:100BC1009B9002DEE0FBA3E0FAA3E0F990000112A2
:100BD10006F6FB64017038C28E538EFE5389BF53F3
:100BE10089CF438E409002E3E0FCA3E0FDA3E0FE49
:100BF100A3E0FF780812093E8F8D9002E3A3A3A31F
:100C0100E0F58BC2AB5389BF538FFDD28E8073EB5E
:100C110064027032538EEF438E01538EF7438E047C
:100C21009002E3E0FCA3E0FDA3E0FEA3E0FF78086F
:100C310012093E8FD69002E3A3A3A3E0F5D753AFE9
:100C4100FB438E10803C7FFF229002DEE0FBA3E09D
:100C5100FAA3E0F91206DDFF70139000081206F600
:100C6100B40105438E20801A538EDF8015EFB480C6
:100C7100119000081206F6B40105438780800353E2
:100C8100877F9002DEE0FBA3E0FAA3E0F990000782
:100C91001206F67004C29C8002D29C7F0022900250
:100CA100DDE064026003020DE9900005F0A3F0A30A
:100CB100F0A3F0A3F09002E1F0A3F09002E1E0FED6
:100CC100A3E0FFC39480EE9400501C74F42FF582CE
:100CD10074013EF583E4F09002E2E004F070DC90F0
:100CE10002E1E004F080D4E49002E1F0A3F090028C
:100CF100E1E0FEA3E0FFC39480EE9400501C7494E5
:100D01002FF58274003EF583E4F09002E2E004F0F6
:100D110070DC9002E1E004F080D49002DEE0FBA3FD
:100D2100E0FAA3E0F91206DDFF64C06008EF644059
:100D31006003020DC7EFB4C005439A808003539A44
:100D41007F90000212096B7F807E8D7D5B7C00129B
:100D5100088D9002E312099BE4FFFE7D01FC9002E5
:100D6100E3E0F8A3E0F9A3E0FAA3E0FBC312092D45
:100D710040037FFF229002E3E0F8A3E0F9A3E0FA49
:100D8100A3E0FBC3E49BFFE49AFE740199FDE498A0
:100D9100FC9002E312099B538EEF538EF7438E04AE
:100DA1009002E3E0FCA3E0FDA3E0FEA3E0FF7808EE
:100DB10012093E8FD69002E3A3A3A3E0F5D753AF68
:100DC100FB438E1080037FFF229002DEE0FBA3E055
:100DD100FAA3E0F99000071206F6C454F0FFE59A71
:100DE10054EF4FF59A7F00229002DDE06403600327
:100DF100020F7D90000AF0A3F0A3F0A3F0A3F090FE
:100E010002E1F0A3F09002E1E0FEA3E0FFC3944011
:100E1100EE9400501C74742FF58274023EF583E445
:100E2100F09002E2E004F070DC9002E1E004F08076
:100E3100D4E49002E1F0A3F09002E1E0FEA3E0FF30
:100E4100C39440EE9400501C74142FF58274013E3B
:100E5100F583E4F09002E2E004F070DC9002E1E05E
:100E610004F080D49002DEE0FBA3E0FAA3E0F912E3
:100E710006DDFF64C06008EF64406003020F5BEFB2
:100E8100B4C00543AC80800353AC7F9000021209CB
:100E91006B7F807E8D7D5B7C0012088D9002E3125A
:100EA100099BE4FFFE7D01FC9002E3E0F8A3E0F979
:100EB100A3E0FAA3E0FBC312092D40037FFF2290B8
:100EC10002E3E0F8A3E0F9A3E0FAA3E0FBC3E49BAB
:100ED100FFE49AFE740199FDE498FC9002E3120983
:100EE1009B9002DEE0FBA3E0FAA3E0F9900001127F
:100EF10006F6FB6403702943AC409002E3E0FCA3D7
:100F0100E0FDA3E0FEA3E0FF780812093E8FD49034
:100F110002E3A3A3A3E0F5D553D1F043D10A803D69
:100F2100EB64027032538EEF53ACBF538EF7438E96
:100F3100049002E3E0FCA3E0FDA3E0FEA3E0FF7860
:100F41000812093E8FD69002E3A3A3A3E0F5D7537D
:100F5100AFFB438E1080067FFF227FFF229002DECF
:100F6100E0FBA3E0FAA3E0F99000071206F6C454EF
:100F7100F0FFE5AC54EF4FF5AC7F00229002DDE0CD
:100F81006404600302111190000FF0A3F0A3F0A319
:100F9100F0A3F09002E1F0A3F09002E1E0FEA3E003
:100FA100FFC39420EE9400501C74B42FF582740298
:100FB1003EF583E4F09002E2E004F070DC9002E19F
:100FC100E004F080D4E49002E1F0A3F09002E1E0CB
:100FD100FEA3E0FFC39420EE9400501C74D42FF5BF
:100FE1008274013EF583E4F09002E2E004F070DCEB
:100FF1009002E1E004F080D49002DEE0FBA3E0FA8D
:10100100A3E0F91206DDFF64C06008EF64406003ED
:101011000210EFEFB4C005438480800353847F90B6
:10102100000212096B7F807E8D7D5B7C0012088D32
:101031009002E312099BE4FFFE7D01FC9002E3E0D4
:10104100F8A3E0F9A3E0FAA3E0FBC312092D4003E2
:101051007FFF229002E3E0F8A3E0F9A3E0FAA3E026
:10106100FBC3E49BFFE49AFE740199FDE498FC90B4
:1010710002E312099B9002DEE0FBA3E0FAA3E0F990
:101081009000011206F6FB6404702943844090022B
:10109100E3E0FCA3E0FDA3E0FEA3E0FF7808120972
:1010A1003E8FD29002E3A3A3A3E0F5D353D10F4324
:1010B100D1A0803DEB64027032538EEF5384BF5355
:1010C1008EF7438E049002E3E0FCA3E0FDA3E0FE73
:1010D100A3E0FF780812093E8FD69002E3A3A3A3F1
:1010E100E0F5D753AFFB438E1080067FFF227FFFD1
:1010F100229002DEE0FBA3E0FAA3E0F990000712E0
:1011010006F6C454F0FFE58454EF4FF5847F0022C6
:021111007FFF5E
:0111130022B9
:0F31EE008F999000027401F0900002E070FA22B5
:10316E001206DDFF600C1231EE740129F9E43AFA11
:03317E0080EE22BE
:0F31FD008F9B9000077401F0900007E070FA229A
:103181001206DDFF600C1231FD740129F9E43AFAEF
:0331910080EE22AB
:0F320C008FAD90000C7401F090000CE070FA226E
:103194001206DDFF600C12320C740129F9E43AFACC
:0331A40080EE2298
:0F321B008F859000117401F0900011E070FA227D
:1031A7001206DDFF600C12321B740129F9E43AFAAA
:0331B70080EE2285
:05002600AE070231FDF0
:03002300022A5658
:102A5600C0E0C083C082C0D075D000C007309827C0
:102A6600C298900003E0C394804002E4F090000313
:102A7600E0FF04F074142FF582E43400F583E59941
:102A8600F09000047405F0309907C299900002E4B2
:0C2A9600F0D007D0D0D082D083D0E03246
:030043000228C0D0
:1028C000C0E0C083C082C0D075D000C007E59A3098
:1028D000E028539AFE900008E0C394804002E4F0A0
:1028E000900008E0FF04F074942FF582E43400F5C2
:1028F00083E59BF09000097405F0E59A30E10853F8
:102900009AFD900007E4F0D007D0D0D082D083D0D9
:02291000E032B3
:03008B0002291235
:10291200C0E0C083C082C0D075D000C007E5AC3033
:10292200E02853ACFE90000DE0C394404002E4F076
:1029320090000DE0FF04F074142FF582E43401F5E9
:1029420083E5ADF090000E7405F0E5AC30E108537C
:10295200ACFD90000CE4F0D007D0D0D082D083D070
:02296200E03261
:03009300022964DB
:10296400C0E0C083C082C0D075D000C007E5843009
:10297400E0285384FE900012E0C394204002E4F067
:10298400900012E0FF04F074D42FF582E43401F5D2
:1029940083E585F09000137405F0E58430E1085375
:1029A40084FD900011E4F0D007D0D0D082D083D041
:0229B400E0320F
:03002B0002008E42
:04008E0053BCDF324E
:102816009000011206F6FFE5DE54F04FF5DE90005B
:10282600021206F6C43354E0FFE5DE54DF4FF5DE50
:102836001206DDFFD3941F502B9000031206F6FEFE
:10284600D39401501F9000041206F6FDD394035052
:1028560013EDC43354E0FDEEC433333354804D4F8F
:0528660090FEA8F02225
:0C325D00EFB4010443BC802253BC7F226C
:10250400EFD3940F4002806BE4F5BDF5BEE5BC54F7
:10251400F044404FF5BC0000000000000000000043
:10252400E4FDE5BC30E54753BCDFE5DEAFBD30E597
:102534000DEFFEACBEECFBEBFF9003938022900307
:1025440093E4F0A3EFF0E5BEC4540FFBE0C4F854E9
:102554000FC868FF900393E0C454F048FEEF4BFFAC
:10256400EEF0A3EFF0900393E0FEA3E0FF220DED65
:07257400B4FAAF7E107F00F6
:01257B00223D
:10159700AD07ED6401707A90FECCE054FEF0E054A4
:1015A700FBF090FEC8E054FCF01206DDFF90FEC889
:1015B700E0548F4FF09000061206F6FF90FECC30F5
:1015C700E00DE04401F090FEB1E04401F0800BE053
:1015D70054FEF090FEB1E054FEF0EF90FECC30E107
:1015E7000DE04404F090FEB1E04402F0800BE054BB
:1015F700FBF090FEB1E054FDF09000031207CAE53E
:10160700F090FED5F09000031207CA90FED602199B
:1016170051ED6402707A90FECCE054EFF0E054BFD5
:10162700F090FEC9E054FCF01206DDFF90FEC9E021
:10163700548F4FF09000061206F6FF90FECC30E272
:101647000DE04410F090FEB1E04404F0800BE0544C
:10165700EFF090FEB1E054FBF0EF90FECC30E30DDD
:10166700E04440F090FEB1E04408F0800BE054BF46
:10167700F090FEB1E054F7F09000031207CAE5F0CE
:1016870090FED7F09000031207CA90FED8021951B6
:10169700ED6403707A90FECDE054FEF0E054FBF069
:1016A70090FECAE054FCF01206DDFF90FECAE0543B
:1016B7008F4FF09000061206F6FF90FECD30E40D36
:1016C700E04401F090FEB1E04410F0800BE054FEDE
:1016D700F090FEB1E054EFF0EF90FECD30E50DE075
:1016E7004404F090FEB1E04420F0800BE054FBF09E
:1016F70090FEB1E054DFF09000031207CAE5F090C6
:10170700FED9F09000031207CA90FEDA021951EDD4
:101717006404707A90FECDE054EFF0E054BFF0908F
:10172700FECBE054FCF01206DDFF90FECBE0548FB9
:101737004FF09000061206F6FF90FECD30E60DE062
:101747004410F090FEB1E04440F0800BE054EFF01D
:1017570090FEB1E054BFF0EF90FECD30E70DE044CE
:1017670040F090FEB1E04480F0800BE054BFF09071
:10177700FEB1E0547FF09000031207CAE5F090FE37
:10178700DBF09000031207CA90FEDC021951ED64EA
:1017970080704F9000051206F690FEDEF090000173
:1017A7001207CAE5F090FED2F09000011207CA9026
:1017B700FED3F09000081206F690FEDDB40106E0B5
:1017C7004480F08004E0547FF09000071206F69002
:1017D700FEC0B40106E04401F08004E054FEF07F4F
:1017E7000022ED6405705690FEECE054FEF090FE8A
:1017F700E8E054FCF01206DDFF90FEE8E0548F4F5E
:10180700F09000061206F690FEEC30E00DE0440181
:10181700F090FEB5E04401F0800BE054FEF090FE3E
:10182700B5E054FEF09000031207CAE5F090FEF50C
:10183700F09000031207CA90FEF6021951ED6406F4
:10184700705690FEECE054EFF090FEE9E054FCF0A7
:101857001206DDFF90FEE9E0548F4FF0900006126C
:1018670006F690FEEC30E20DE04410F090FEB5E095
:101877004404F0800BE054EFF090FEB5E054FBF029
:101887009000031207CAE5F090FEF7F090000312EC
:1018970007CA90FEF8021951ED6407705590FEEDE6
:1018A700E054FEF090FEEAE054FCF01206DDFF90F3
:1018B700FEEAE0548F4FF09000061206F690FEED18
:1018C70030E40DE04401F090FEB5E04410F0800BE9
:1018D700E054FEF090FEB5E054EFF09000031207DD
:1018E700CAE5F090FEF9F09000031207CA90FEFADD
:1018F7008058ED6408705790FEEDE054EFF090FECD
:10190700EBE054FCF01206DDFF90FEEBE0548F4F46
:10191700F09000061206F690FEED30E60DE044105A
:10192700F090FEB5E04440F0800BE054EFF090FEFD
:10193700B5E054BFF09000031207CAE5F090FEFB34
:10194700F09000031207CA90FEFCF07F0022ED64BE
:1019570081704C9000051206F690FEFEF090000193
:101967001207CAFDACF0EC90FEF2F0AF05A3EFF062
:101977009000081206F690FEFDB40106E04480F0E0
:101987008004E0547FF09000071206F690FEE0B462
:101997000106E04401F08004E054FEF07F00227F5E
:0219A700FF221D
:10205100EF2480700302210C1470030221512480AB
:10206100B40800400302219D90207775F003A4C5B8
:102071008325F0C5837302208F02209C0220AC02CD
:1020810020BC0220CC0220DC0220EC0220FC120742
:102091009FFDACF0EC90FED5022197900002120753
:1020A100CAFDACF0EC90FED7022197900004120714
:1020B100CAFDACF0EC90FED9022197900006120700
:1020C100CAFDACF0EC90FEDB0221979000081207EC
:1020D100CAFDACF0EC90FEF502219790000A1207C0
:1020E100CAFDACF0EC90FEF702219790000C1207AC
:1020F100CAFDACF0EC90FEF902219790000E120798
:10210100CAFDACF0EC90FEFB02219712079FFDACDB
:10211100F0EC90FED5F0AF05A3EFF09000021207AE
:10212100CAFDACF0EC90FED7F0AF05A3EFF0900044
:10213100041207CAFDACF0EC90FED9F0AF05A3EF95
:10214100F09000061207CAFDACF0EC90FEDB804671
:102151009000081207CAFDACF0EC90FEF5F0AF0557
:10216100A3EFF090000A1207CAFDACF0EC90FEF765
:10217100F0AF05A3EFF090000C1207CAFDACF0EC34
:1021810090FEF9F0AF05A3EFF090000E1207CAFD23
:0D219100ACF0EC90FEFBF0AF05A3EFF022E8
:1031DD005393DF43942053B1EF43B2107F0202317A
:0131ED00459C
:10312F00EF7003D2B422EFB40103D28522EFB402C1
:06313F0004D2B4D2852287
:10314500EF7003C2B422EFB40103C28522EFB402CB
:0631550004C2B4C2852291
:0431C200410397012D
:0700030053B17F53B27F22CD
:1030020020B710900397E0B4010912219EE49003C7
:1030120097F02230B70F900397E070091231CC90ED
:0630220003977401F02287
:10000E009002D57402F09002D414F0FB7A0279D4E7
:05001E00E4FF021C8C50
:102FB0009002D4741FF0E49002D7F0A304F0E490E0
:102FC00002D5F0A304F0FB7A0279D41228167F010F
:092FD00012325DE4FDFF022E6BDC
:0632830012000E022FB044
:102B37007F09122504AD07AC06E41203B2E4FBFAE1
:102B47007920784012018EE4FBFA798078451202E9
:102B57009790038F12099BE4FFFE7D407C40900312
:102B67008FE0F8A3E0F9A3E0FAA3E0FB12018E7B64
:0A2B77009A7A997919783F02009DBF
:0732750053B1BF43B2402238
:0C322A0075150475161BD516FDD515FA98
:013236002275
:10311700D2B6E4FFFEB2B612322A0FBF00010EBECE
:073127000BF3BFB8F0C2B6C4
:01312E00227E
:0D323700B3ACCAB1A3BA25642075730A00B8
:102F86009002D57408F0E49002D4F07B017A0279BD
:102F9600D47F01121C8C9002D57401F09002D4F0FB
:0A2FA600FB7A0279D47F04021C8C30
:06328900122F86C2932201
:06327C0075154ED515FD8D
:013282002229
:0B234300900354EBF0A3EAF0A3E9F0D4
:10234E00E4A3F0A3F0D29312327C12327CC29390AB
:10235E000358E004F07006900357E004F012327C4C
:10236E0020C00FC3900358E0941E900357E09400D2
:10237E0040DD900357E0FEA3E0FFC3941EEE9400F1
:10238E00401B7BFF7A3279377C007D0A120757900B
:10239E00035CEEF0A3EFF012117F7FFF22E49003B7
:1023AE0057F0A3F0900358E004F07006900357E046
:1023BE0004F012327C20C0EC900357E0FEA3E0FF45
:1023CE007C007D22120757AC06AD07E41203B27BE8
:1023DE000A7AD779A3783B12018E900354E0FBA3BF
:0A23EE00E0FAA3E0F91209517F00A4
:0123F80022C2
:0531C60042039500002A
:102711009002D5740CF0E49002D4F07B017A027936
:10272100D47F03121C8C9002D57401F0E49002D482
:10273100F07B017A0279D47F05121C8C9002D5744A
:1027410040F0E49002D4F07B017A0279D4FF121CAC
:102751008C9002D57480F0E49002D4F07B017A026F
:0727610079D47F04021C8CF7
:03329500022711FC
:102F5700A2B3E433120723A2B2E4339000011207AD
:102F670035A2C8E433900002120735A286E43390F5
:0F2F77000003120735A2C7E433900004020735A8
:10286B00E4FFFBFA30B30824C0FBEA34FFFA0F3065
:10287B00B20974E02BFB74FF3AFA0F30C8010F302A
:10288B00860874202BFBE43AFA0F30C70874402BF0
:10289B00FBE43AFA0FEF7009900395E0FEA3E0FF1B
:1028AB0022EFFD7C00AE02AF03120769900395EE99
:0428BB00F0A3EFF0A7
:0128BF0022F6
:102F2700000000000000000000000000000000009A
:102F3700000000000000000000000000000000008A
:102F4700000000000000000000000000000000007A
:0D3244005395F05396F053910F53920F22C3
:05002E00E0FEA3E0FF6D
:0F0033007C007D02120769EF2432FFE43EFE22BB
:101EE0009003647460F090035E12002EEE3395E070
:101EF000FDFCE47BC07A5DF9F8120802E47B64FA29
:101F0000F9F8122CE0900367EEF0A3EFF090035E77
:101F1000E07002A3E07003FF80027F0390036AEF8A
:101F2000F07B017A0379647F011215979003647442
:101F300070F090036212002EEE3395E0FDFCE47B1E
:101F4000C07A5DF9F8120802E47B64FAF9F8122C01
:101F5000E0900367EEF0A3EFF0900362E07002A35D
:101F6000E07003FF80027F0C90036AEFF07B017A40
:101F70000379647F021215979003647460F09003F4
:101F80006012002EEE3395E0FDFCE47BC07A5DF933
:101F9000F8120802E47B64FAF9F8122CE090036767
:101FA000EEF0A3EFF0900360E07002A3E07003FF97
:101FB00080027F3090036AEFF07B017A0379647FBF
:101FC000031215979003647470F090035C12002E56
:101FD000EE3395E0FDFCE47BC07A5DF9F81208026F
:101FE000E47B64FAF9F8122CE0900367EEF0A3EFBB
:101FF000F090035CE07002A3E07003FF80027FC0FA
:1020000090036AEFF07B017A0379647F04121597DD
:10201000900365745DF0A374BFF0E4900369F090E1
:10202000036C04F090036BF0FB7A0379647F8012F9
:10203000159790FEB2E054FC4401F0E054F34404E0
:10204000F0E054CFF0E0543FF0E4FBFD7F80022449
:01205000850A
:06328F0043BA8002324444
:0829B600900324EEF0A3EFF002
:1029BE0078267C037D017BFF7A2F79277E007F08A6
:1029CE001206B7900324E0FEA3E0FFA3EEF0A3EF00
:1029DE00F0A3EEF0A3EFF0A3EEF0A3EFF0A3EEF072
:1029EE00A3EFF0785C7C037D017B017A0379267E70
:0929FE00007F081206B7021EE07A
:08276800900324EEF0A3EFF052
:1027700078267C037D017BFF7A2F792F7E007F08EE
:102780001206B7900324E0FEA3E0FFC3E49FFFE43A
:102790009EFEA3F0A3EFF0A3EEF0A3EFF0A3EEF004
:1027A000A3EFF0A3EEF0A3EFF0785C7C037D017B58
:0F27B000017A0379267E007F081206B7021EE029
:082C1000900324EEF0A3EFF0A5
:102C180078267C037D017BFF7A2F79377E007F0839
:102C28001206B7900324E0FEA3E0FF90032AEEF01B
:102C3800A3EFF0A3EEF0A3EFF0785C7C037D017BBB
:0F2C4800017A0379267E007F081206B7021EE08C
:082C5700900324EEF0A3EFF05E
:102C5F0078267C037D017BFF7A2F793F7E007F08EA
:102C6F001206B7900324E0FEA3E0FFA3EEF0A3EF5C
:102C7F00F0A3EEF0A3EFF0785C7C037D017B017A8B
:0D2C8F000379267E007F081206B7021EE0C2
:0827BF00900324EEF0A3EFF0FB
:1027C70078267C037D017BFF7A2F79477E007F087F
:1027D7001206B7900324E0FEA3E0FFA3EEF0A3EFF9
:1027E700F0A3EEF0A3EFF0C3E49FFFE49EFEA3F097
:1027F700A3EFF0A3EEF0A3EFF0785C7C037D017B01
:0F280700017A0379267E007F081206B7021EE0D1
:102FD90078547C037D017BFF7A2F794F7E007F082F
:102FE9001206B7785C7C037D017B017A0379547EF4
:092FF900007F081206B7021EE079
:1019A900EFD3940540037FFF2274242F2FF8E620FC
:1019B900E5F4C2AFE64430F6D2AFAE0CEEC39F50A9
:1019C900210E741A2EF8E6F908E618BE050274FF0E
:1019D900FDED69600909E71919F7090980F3161678
:1019E90080DAEED39F400405810581EED39F402222
:1019F900741A2EF808E6F9EEB50C02A98118060644
:101A0900E6FDED6960091919E70909F71980F31E5F
:101A190080D9EF241AF8E604F8EF2F04903269937D
:091A2900F608EF2F93F67F00226E
:101A3200EFD3940540037FFF22EF232424F8E630FE
:101A4200E5F4C2AFE6548CF6D2AFE50CB5070A74E2
:101A52001A2FF8E6F581021B95502E741B2FF8E61B
:101A6200BF050274FFFD18E6F9741A2FF8FBE6FCB5
:101A7200E96C6008A805E7F61D1980F4A803A6051D
:101A82001FE50CB507E37F0022741B2FF8E6FD1853
:101A920086010F741A2FF8A601088604E50CB50713
:101AA20002AC81ED6C60080D09A805E6F780F4E54B
:091AB2000CB507DE89817F0022DA
:101ABB008FF0E4FFFEE50C232423F8C2A930F70DC9
:101ACB007F08E6600B2DF660325030800730F10650
:101ADB00EDF660277E020830F010C2AFE610E72566
:101AEB000E30E20CD2AF7F048014C2AFE610E715C4
:101AFB0054EC4EF6D2AFD2A9021B957F0808EF44E7
:0F1B0B0083F4C2AF56C6D2AFD2A954804FFF2287
:03000B00021B1FB6
:101B1A00C2AF80FE32121B1E85D00B75D008AAE018
:101B2A00C28CE58A24F7F58AE58C34D8F58CD28CF8
:101B3A00EC241BF8E6BC050274FFC39581B41400BB
:101B4A0040CE7906782316E608700BC2AFE630E17C
:101B5A00034418F6D2AF08D9EDEA8BD0301201222D
:101B6A00D50DFCC0E0C0D0C0F0C083C082C000C0A8
:101B7A0001C002C003C004C005C006C007E50C23AB
:101B8A002424F87440C2AF46F6D2AFD212E50CFF55
:101B9A00232424F80F0808BF06047F007824E630BF
:101BAA00E4F200E50CC39F5020050C741A250CF8CA
:101BBA00E6FDA68108E6AE0CBE050274FFCDF8E884
:101BCA006D60E008E6C0E080F6E50CD39F4027E5AB
:101BDA000C241BF8E6AE0CBE050274FFFD18E6CD18
:101BEA00F8E5816D6006D0E0F61880F5E50C241A58
:101BFA00C8F6150C80D3750D05E50C232424F87F4F
:101C0A0004C2AFE610E61E30E00310E20C7F00309B
:051C1A00E10730E304C6
:101C1F007F0854F4547CC6D2AF54804207C21222BC
:101C2F00F6D2AFD007D006D005D004D003D002D063
:101C3F0001D000D082D083D0F0D0D0D0E0C2122219
:101C4F00781AA68174056006FF0876FFDFFB7F0612
:101C5F00E47823F608F608DFFA78247630903269B4
:101C6F00740193C0E0E493C0E0750D0543890175DD
:0D1C7F008AF0758CD8D28CD2AFD2A9220584
:10009600020420E86480F8E933E83360110460F074
:1000A600ED33EC337009E8FCE9FDEAFEEBFF2204D0
:1000B60060DED3EB9FEA9EE99DE8C2E78CF0C2F7CB
:1000C60095F0400CE8CCF8E9CDF9EACEFAEBCFFB97
:1000D6001203EB85D0F05804700320D5B3E8047002
:1000E600075002B2D502042A92D5EC0460F7E4CC9C
:1000F600C0E0C398F8603B94186008400DD0E0FB60
:10010600020402E4FBFAC9FC8028E830E406E4C9EC
:10011600FBE4CAFCE830E305E4C9CACBFCE85407B3
:100126006010F8C3E913F9EA13FAEB13FBEC13FCBE
:10013600D8F130F52FC3E49CFCEF9BFFEE9AFEED61
:1001460099FDD0E0FBEF4E4D4C701222DB0302040A
:1001560027EC2CFCEF33FFEE33FEED33FDED30E7FD
:10016600EB020402EF2BFFEE3AFEED39FDD0E0FB89
:1001760050130BBB000302042AED13FDEE13FEEF32
:0801860013FFEC13FC0204025C
:10018E00EC4D6011E8497017ED33EC3304600DE46B
:10019E00FCFFFEFD22E933E8330470F8020420125E
:1001AE0003EB58046009E4CC248150062850090260
:1001BE00042A284003020427C0E0EB4A7044B980A9
:1001CE0006D0E0FB020416EF4E701CBD8008EBFF5C
:1001DE00EAFEE9FD80EBE98DF0A4FEE5F002027780
:1001EE00E9CDF9EAFEEBFFEF89F0A4FCE5F0CE894C
:1001FE00F0A42EFFE435F0CD89F0A42DFEE435F009
:10020E008067EF4E7005BD80D780C3EF8BF0A4AC36
:10021E00F0EE8BF0A42CFCE435F0F8EF8AF0A42C71
:10022E00E5F038FCE433CB8DF0A42CFCE5F03BF884
:10023E00EE8AF0A42CFCE5F038F8E433CF89F0A474
:10024E002CFCE5F038CF3400CE89F0A42FFFE5F07A
:10025E003EFEE433C98DF0A42EFEE5F039CD8AF0D2
:10026E00A42FFFE5F03EFEE43DFD33D0E0FB50074A
:10027E000BBB000F02042AEC2CFCEF33FFEE33FE17
:06028E00ED33FD02040245
:1002940002042AEC5D046005E8590470030204209A
:1002A4001203EB580460F6EC4860F2EC7004FDFEB7
:1002B400FF22C860DB2481C85009C398600250063D
:1002C4000204279850CAF582E9294B4A7005AB828B
:1002D40002041675F0007C1A7880C3EF9BEE9AED49
:1002E40099400DC3EF9BFFEE9AFEED99FDE842F0B5
:1002F400DC23ACF0D0E0FFD0E0FED0E0FDAB822008
:10030400E7101BEB60BAEC2CFCEF33FFEE33FEED91
:1003140033FD020402E803F830E705C0F075F0008D
:10032400EF2FFFEE33FEED33FD40B830E7C280AA75
:1003340074F8CC6480CCC86480C8F58204604FC370
:10034400EB9FF5F0EA9E42F0E99D42F0E89C45F00F
:10035400603C501DE5825FFFE582D313CB5BCBF499
:100364002B5582FB50280ABA002409B900200880C2
:100374001DE5825BFBE582D313CF5FCFF4C3132F5C
:100384005582FF50090EBE00050DBD00010CC3EBE4
:100394009FF5F0EA9E42F0E99D42F0E89C45F0604A
:0903A40007CC4820E701B3EC226C
:1003AD0075F020800E75F010800575F0087D007ECB
:1003BD00007F003392D530D50312091FEC33401066
:1003CD00EF33FFEE33FEED33FDEC33FCD5F0ED22D4
:0E03DD00E5F0247EA2D513CC92E7CDCEFF2210
:10111400E515245CF582E43403F583E0051522909B
:10112400035930100390035CE475F0011209D802EE
:1011340006DD2009E97F2ED2098018EF540F249090
:10114400D43440D4FF300D0BEF24BFB41A00500345
:101154002461FFE516600215160519E519700205EC
:101164001830100E900359E475F0011209D8EF02FB
:1011740007230200267403D2108003E4C210F5157D
:101184009003591209EFE4F516F518F519E5166000
:10119400077F2012115780F57517FFC20AC209C2D2
:1011A4000BC20CC20EC20FC211121123FF700D30FC
:1011B40010057F00121168AF19AE1822B4255FC262
:1011C400D5C20D121123FF24D0B40A00501A75F0B1
:1011D4000A781630D50508B6FF0106C6A426F620FF
:1011E400D5047002D20C80D924CFB41A00EF500475
:1011F400C2E5D20D02145AD20A80C6D20980C0D2E6
:101204000B80BCD2D580BAD20E80B47F2012115785
:10121400200B077401B5160040F1121114FF1211CE
:1012240057021191D211D20F8095121114FB121191
:1012340014FA121114F94A4B700679587A157BFF87
:10124400200B2EE516602A7E008E8275830012061E
:10125400F660060EEE651770F0C2D5EBC0E0EAC08A
:10126400E0E9C0E0EE1214BBD0E0F9D0E0FAD0E03F
:10127400FB1206DDFF60AAEBC0E0EAC0E0E9C0E0D3
:10128400121157D0E02401F9D0E03400FAD0E0FB89
:10129400E5170460DCD517D98087D20B80A212141D
:1012A4009D60F7E517700104120435A917600DE578
:1012B40017600914F517121545EF60F3EA30E702D9
:1012C400F404C3995079EAF425170430E701E404DF
:1012D400F517800D12149D60C1EA05172517120435
:1012E40035EA900388F030E701E4251704D51704A4
:1012F400200E01141214BBE4C0E0121545900388BB
:10130400E0601320E70714F012113F802204F0D0AC
:10131400E014C0E07F0012113FE517600712113698
:101324001517800B300E03121136D0E0021191D044
:10133400E00480C412149D609EE5170412043590E5
:101344000388EAF0E517200E026001042404121455
:01135400BBDD
:1013550074FF04C0E012154512113FE517200E0277
:101365006003121136D0E0B517E87F451211499098
:101375000388E07F2B30E7047F2DF404C0E01211D1
:1013850057D0E075F00A84C0F0121140D0E0121178
:1013950040021191791080027908C20FC2118008AC
:1013A500D2D5790A8004790AC2D5E517047002F509
:1013B50017E4FAFDFEFF121114FC7B08200A131234
:1013C5001114FD7B1030090A121114FE121114FFBD
:1013D5007B20EC3382D592D55013C3E43009069FA8
:1013E500FFE49EFEE4200A039DFDE49CFCE4CBF8AB
:1013F500C20AEC700CCFCECDCCE824F8F870F3809F
:1014050017C3EF33FFEE33FEED33FDEC33FCEB3367
:10141500FB994002FB0FD8E9EB300A05F8D0E0C490
:1014250048B20AC0E00AEC4D4E4F78207B0070C2EE
:10143500EAB5170040BCC0E01214BDD0F0D0E020E2
:101445000A04C4C0E0C4B20AC0F0121140D0F0D5FD
:10145500F0EB0211911209F8122E5313995811FF4E
:101465004C11FB42139D4F13A54413A54912144378
:1014750013AB5512D84613384512A24715785012AA
:10148500032D12072E122A2B120B23122820156169
:101495002A11C34800001222E517B4FF0375170689
:1014A500121114FC121114FD121114FE121114FF65
:1014B500900381020472790AA2D5200C14300E091A
:1014C500B910020404B9080104A2D5200F02500185
:1014D50004200B68920BB516005034C0E07F203015
:1014E5000C197F30A20B720F720E500F121514C219
:1014F5000BC20FC20EC2117F30800F300E03E9C040
:10150500E0121157300E03D0E0F9D0E0B516CC301B
:101515000E177F30B9100C1211577F58300D077F09
:10152500788003B90803121157300B057F2D02117E
:10153500577F202011F87F2B200FF322920B80CFAD
:101545007F00B40700500B2481F582E43403F58352
:10155500E0FF22286E756C6C2900D20A1211143036
:101565000AF8C20A781630D50108F60211C32D50C3
:101575004349581211142403B405004001E49015A1
:101585007393121148743A121148D20C751604025D
:021595001399A8
:1003EB00E9D2E7C933E833F892D5EDD2E7CD33EC58
:0703FB0033FC5002B2D522D1
:10040200EC30E7100FBF000C0EBE00080DBD00045B
:100412000BEB6014A2D5EB13FCED92E7FD2274FF07
:10042200FCFDFEFF22E480F8A2D574FF13FC7D8060
:03043200E480EF74
:10043500F920E73624F950037907E4F42402FBE5B3
:1004450082158270021583DBF6E024FB501BE96000
:1004550014E4F0E582158270021583E004F0B40A15
:0D04650008E4F0D9EE7401F00A22C2D5229D
:10047200ED33EC3392D5FA602AB4FF33EDC2E77B59
:10048200FF60067A047997E4227A0479A020D504E1
:100492007A04799B224E614E002B494E46002D492B
:1004A2004E4600E47A08F0A3DAFC7B00740722C00F
:1004B20083C082ECC0E0EDC0E0EEC0E0EFC0E0EA55
:1004C20075F010A4CAABF075F04DA42BFBE435F027
:1004D200FCEA2410FAEB34C5FBEC34D9FCEDC2E79C
:1004E200FF75F056A4F42411C5F0F434C58FF0A4BE
:1004F2002AE5F03BE43CF020E7141205A7D0E0FF28
:10050200D0E0FED0E0FDD0E0FC1202978014F404AB
:100512001205A7D0E0FFD0E0FED0E0FDD0E0FC1253
:10052200018ED082D083E0FAEDD2E7CD33EC3324D2
:1005320082FBE4C3CF33CFCE33CECD33CD33DBF327
:100542007B0775F00A846004F0A31B0AE5F0F0A3B0
:100552008FF0740AA4FFACF08EF0740AA42CFEACE7
:10056200F050010C8DF0740AA42CFDE435F0F0A3D8
:05057200DBDE7407222E
:100577003F8000004120000042C80000447A00008C
:10058700461C400047C35000497424004B1896800E
:100597004CBEBC205A0E1BCA6753C21C749DC5AE05
:1005A700FB60065407601C23231205D5EB54386003
:1005B700091205C11205D012018EECF8EDF9EEFA19
:1005C700EFCB22EB1205D080F1543803241C9005A1
:1005D70077FE93FC0EEE93FD0EEE930ECE93FF2265
:030000000223F9DF
:0C23F900787FE4F6D8FD75812E022440A8
:1005E700E709F608DFFA8046E709F208DFFA803EF6
:1005F70088828C83E709F0A3DFFA8032E309F608E3
:10060700DFFA8078E309F208DFFA807088828C834A
:10061700E309F0A3DFFA806489828A83E0A3F608FE
:10062700DFFA805889828A83E0A3F208DFFA804CD8
:1006370080D280FA80C680D4806980F280338010AF
:1006470080A680EA809A80A880DA80E280CA803318
:1006570089828A83ECFAE493A3C8C582C8CCC58390
:10066700CCF0A3C8C582C8CCC583CCDFE9DEE78060
:100677000D89828A83E493A3F608DFF9ECFAA9F0DF
:10068700EDFB2289828A83ECFAE0A3C8C582C8CC35
:10069700C583CCF0A3C8C582C8CCC583CCDFEADE4E
:1006A700E880DB89828A83E493A3F208DFF980CCB0
:1006B70088F0EF60010E4E60C388F0ED2402B404A9
:1006C7000050B9F582EB2402B4040050AF23234550
:0606D70082239006377338
:1006DD00BB010689828A83E0225002E722BBFE021B
:0906ED00E32289828A83E493224E
:1006F600BB010CE58229F582E5833AF583E02250B9
:1007060006E92582F8E622BBFE06E92582F8E22202
:0D071600E58229F582E5833AF583E493221C
:10072300BB010689828A83F0225002F722BBFE01B5
:02073300F322AF
:10073500F8BB010DE58229F582E5833AF583E8F0FA
:10074500225006E92582C8F622BBFE05E92582C8A6
:02075500F2228E
:10075700EF8DF0A4A8F0CF8CF0A428CE8DF0A42EB6
:02076700FE2270
:10076900C2D5EC30E709B2D5E4C39DFDE49CFCEEAB
:1007790030E715B2D5E4C39FFFE49EFE120A1EC3FB
:10078900E49DFDE49CFC8003120A1E30D507C3E4F6
:060799009FFFE49EFE221A
:10079F00BB010A89828A83E0F5F0A3E02250068725
:1007AF00F009E71922BBFE07E3F5F009E3192289E7
:0B07BF00828A83E493F5F0740193221A
:1007CA00BB0110E58229F582E5833AF583E0F5F06D
:1007DA00A3E0225009E92582F886F008E622BBFE4A
:1007EA000AE92582F8E2F5F008E222E5832AF58390
:0807FA00E993F5F0A3E9932255
:10080200E88FF0A4CC8BF0A42CFCE98EF0A42CFC95
:100812008AF0EDA42CFCEA8EF0A4CDA8F08BF0A413
:100822002DCC3825F0FDE98FF0A42CCD35F0FCEB72
:100832008EF0A4FEA9F0EB8FF0A4CFC5F02ECD3937
:0F084200FEE43CFCEAA42DCE35F0FDE43CFC22A4
:1008510075F008758200EF2FFFEE33FECD33CDCC5E
:1008610033CCC58233C5829BED9AEC99E5829840E1
:100871000CF582EE9BFEED9AFDEC99FC0FD5F0D6BE
:10088100E4CEFBE4CDFAE4CCF9A88222B800C1B9E8
:100891000059BA002DEC8BF084CFCECDFCE5F0CB26
:1008A100F97818EF2FFFEE33FEED33FDEC33FCEB5F
:1008B10033FB10D703994004EB99FB0FD8E5E4F91A
:1008C100FA227818EF2FFFEE33FEED33FDEC33FC07
:1008D100C933C910D7059BE99A4007EC9BFCE99AFB
:1008E100F90FD8E0E4C9FAE4CCFB2275F010EF2F40
:1008F100FFEE33FEED33FDCC33CCC833C810D70740
:100901009BEC9AE899400AED9BFDEC9AFCE899F87A
:0E0911000FD5F0DAE4CDFBE4CCFAE4C8F9220D
:102CE000C2D5E830E70FB2D5E4C39BFBE49AFAE41F
:102CF00099F9E498F8EC30E717B2D5122D161208BE
:102D00008DE4C39BFBE49AFAE499F9E498F8800314
:102D100012088D30D50DE4C39FFFE49EFEE49DFDB7
:042D2000E49CFC2211
:0E091F00C3E49FFFE49EFEE49DFDE49CFC22E9
:10092D00EB9FF5F0EA9E42F0E99D42F0E89C45F020
:01093D002297
:10093E00E8600FECC313FCED13FDEE13FEEF13FF97
:03094E00D8F122BB
:10095100BB010789828A8302099B5005E9F8020AD3
:0A096100A9BBFE05E9F8020AB52261
:10096B00BB010DE58229F582E5833AF583020A8006
:10097B005007E92582F8020A73BBFE07E92582F8C6
:10098B00020A8CE58229F582E5833AF583020A99FE
:0C099B00ECF0A3EDF0A3EEF0A3EFF022CF
:1009A700A8828583F0D083D0821209BE1209BE12B5
:1009B70009BE1209BEE473E493A3C583C5F0C583DA
:1009C700C8C582C8F0A3C583C5F0C583C8C582C89A
:0109D70022FD
:1009D800F8E0FBA3A3E0F925F0F0E58215827002A8
:0709E8001583E0FA38F0224C
:0909EF00EBF0A3EAF0A3E9F02209
:1009F800D083D082F8E4937012740193700DA3A38E
:100A080093F8740193F5828883E4737402936860A1
:060A1800EFA3A3A380DFA1
:10240500021C4FE493A3F8E493A34003F68001F282
:1024150008DFF48029E493A3F85407240CC8C333D8
:10242500C4540F4420C8834004F456800146F6DFA7
:10243500E4800B01020408102040809031BAE47E4C
:10244500019360BCA3FF543F30E509541FFEE4939C
:10245500A360010ECF54C025E060A840B8E493A363
:10246500FAE493A3F8E493A3C8C582C8CAC583CA8E
:10247500F0A3C8C582C8CAC583CADFE9DEE780BE46
:0131CB000003
:100A1E00BC000BBE0029EF8DF084FFADF022E4CCBC
:100A2E00F875F008EF2FFFEE33FEEC33FCEE9DEC85
:100A3E00984005FCEE9DFE0FD5F0E9E4CEFD22EDCB
:100A4E00F8F5F0EE8420D21CFEADF075F008EF2F15
:100A5E00FFED33FD4007985006D5F0F222C398FD06
:050A6E000FD5F0EA22A3
:0D0A7300E6FB08E6F908E6FA08E6CBF822F3
:0C0A8000E0F8A3E0F9A3E0FAA3E0FB22F9
:0D0A8C00E2FB08E2F908E2FA08E2CBF822EA
:100A9900E493F8740193F9740293FA740393FB22B3
:0C0AA900ECF608EDF608EEF608EFF62279
:0C0AB500ECF208EDF208EEF208EFF2227D
:00000001FF
